{"contracts/CourseEnrollment.sol":{"CourseEnrollment":{"abi":[{"inputs":[{"internalType":"string","name":"_name","type":"string"}],"name":"addCourse","outputs":[],"stateMutability":"nonpayable","type":"function"},{"inputs":[],"name":"courseCount","outputs":[{"internalType":"uint256","name":"","type":"uint256"}],"stateMutability":"view","type":"function"},{"inputs":[{"internalType":"uint256","name":"","type":"uint256"}],"name":"courses","outputs":[{"internalType":"string","name":"name","type":"string"},{"internalType":"address","name":"instructor","type":"address"},{"internalType":"bool","name":"isActive","type":"bool"}],"stateMutability":"view","type":"function"},{"inputs":[{"internalType":"uint256","name":"_courseId","type":"uint256"}],"name":"deactivateCourse","outputs":[],"stateMutability":"nonpayable","type":"function"},{"inputs":[{"internalType":"uint256","name":"_courseId","type":"uint256"}],"name":"enrollInCourse","outputs":[],"stateMutability":"nonpayable","type":"function"},{"inputs":[{"internalType":"address","name":"","type":"address"},{"internalType":"uint256","name":"","type":"uint256"}],"name":"enrollments","outputs":[{"internalType":"address","name":"student","type":"address"},{"internalType":"uint256","name":"courseId","type":"uint256"},{"internalType":"bool","name":"isEnrolled","type":"bool"}],"stateMutability":"view","type":"function"},{"inputs":[],"name":"getEnrollments","outputs":[{"components":[{"internalType":"address","name":"student","type":"address"},{"internalType":"uint256","name":"courseId","type":"uint256"},{"internalType":"bool","name":"isEnrolled","type":"bool"}],"internalType":"struct CourseEnrollment.Enrollment[]","name":"","type":"tuple[]"}],"stateMutability":"view","type":"function"}],"evm":{"bytecode":{"linkReferences":{},"object":"608060405234801561001057600080fd5b506110c6806100206000396000f3fe608060405234801561001057600080fd5b506004361061007d5760003560e01c8063660551591161005b57806366055159146100ec5780638b342f351461010a57806396f979d214610128578063ac85495d1461015a5761007d565b806307f910f8146100825780632e554076146100b45780635e52da27146100d0575b600080fd5b61009c600480360381019061009791906107b9565b610176565b6040516100ab93929190610832565b60405180910390f35b6100ce60048036038101906100c991906109af565b6101ea565b005b6100ea60048036038101906100e591906109f8565b6102cd565b005b6100f4610441565b6040516101019190610a25565b60405180910390f35b610112610447565b60405161011f9190610b5e565b60405180910390f35b610142600480360381019061013d91906109f8565b61055e565b60405161015193929190610bff565b60405180910390f35b610174600480360381019061016f91906109f8565b61063d565b005b6001602052816000526040600020818154811061019257600080fd5b9060005260206000209060030201600091509150508060000160009054906101000a900473ffffffffffffffffffffffffffffffffffffffff16908060010154908060020160009054906101000a900460ff16905083565b600260008154809291906101fd90610c6c565b919050555060405180606001604052808281526020013373ffffffffffffffffffffffffffffffffffffffff168152602001600115158152506000806002548152602001908152602001600020600082015181600001908161025f9190610ec0565b5060208201518160010160006101000a81548173ffffffffffffffffffffffffffffffffffffffff021916908373ffffffffffffffffffffffffffffffffffffffff16021790555060408201518160010160146101000a81548160ff02191690831515021790555090505050565b60008082815260200190815260200160002060010160149054906101000a900460ff1661032f576040517f08c379a000000000000000000000000000000000000000000000000000000000815260040161032690610fde565b60405180910390fd5b600160003373ffffffffffffffffffffffffffffffffffffffff1673ffffffffffffffffffffffffffffffffffffffff16815260200190815260200160002060405180606001604052803373ffffffffffffffffffffffffffffffffffffffff16815260200183815260200160011515815250908060018154018082558091505060019003906000526020600020906003020160009091909190915060008201518160000160006101000a81548173ffffffffffffffffffffffffffffffffffffffff021916908373ffffffffffffffffffffffffffffffffffffffff1602179055506020820151816001015560408201518160020160006101000a81548160ff021916908315150217905550505050565b60025481565b6060600160003373ffffffffffffffffffffffffffffffffffffffff1673ffffffffffffffffffffffffffffffffffffffff168152602001908152602001600020805480602002602001604051908101604052809291908181526020016000905b8282101561055557838290600052602060002090600302016040518060600160405290816000820160009054906101000a900473ffffffffffffffffffffffffffffffffffffffff1673ffffffffffffffffffffffffffffffffffffffff1673ffffffffffffffffffffffffffffffffffffffff168152602001600182015481526020016002820160009054906101000a900460ff161515151581525050815260200190600101906104a8565b50505050905090565b600060205280600052604060002060009150905080600001805461058190610ce3565b80601f01602080910402602001604051908101604052809291908181526020018280546105ad90610ce3565b80156105fa5780601f106105cf576101008083540402835291602001916105fa565b820191906000526020600020905b8154815290600101906020018083116105dd57829003601f168201915b5050505050908060010160009054906101000a900473ffffffffffffffffffffffffffffffffffffffff16908060010160149054906101000a900460ff16905083565b3373ffffffffffffffffffffffffffffffffffffffff1660008083815260200190815260200160002060010160009054906101000a900473ffffffffffffffffffffffffffffffffffffffff1673ffffffffffffffffffffffffffffffffffffffff16146106e0576040517f08c379a00000000000000000000000000000000000000000000000000000000081526004016106d790611070565b60405180910390fd5b600080600083815260200190815260200160002060010160146101000a81548160ff02191690831515021790555050565b6000604051905090565b600080fd5b600080fd5b600073ffffffffffffffffffffffffffffffffffffffff82169050919050565b600061075082610725565b9050919050565b61076081610745565b811461076b57600080fd5b50565b60008135905061077d81610757565b92915050565b6000819050919050565b61079681610783565b81146107a157600080fd5b50565b6000813590506107b38161078d565b92915050565b600080604083850312156107d0576107cf61071b565b5b60006107de8582860161076e565b92505060206107ef858286016107a4565b9150509250929050565b61080281610745565b82525050565b61081181610783565b82525050565b60008115159050919050565b61082c81610817565b82525050565b600060608201905061084760008301866107f9565b6108546020830185610808565b6108616040830184610823565b949350505050565b600080fd5b600080fd5b6000601f19601f8301169050919050565b7f4e487b7100000000000000000000000000000000000000000000000000000000600052604160045260246000fd5b6108bc82610873565b810181811067ffffffffffffffff821117156108db576108da610884565b5b80604052505050565b60006108ee610711565b90506108fa82826108b3565b919050565b600067ffffffffffffffff82111561091a57610919610884565b5b61092382610873565b9050602081019050919050565b82818337600083830152505050565b600061095261094d846108ff565b6108e4565b90508281526020810184848401111561096e5761096d61086e565b5b610979848285610930565b509392505050565b600082601f83011261099657610995610869565b5b81356109a684826020860161093f565b91505092915050565b6000602082840312156109c5576109c461071b565b5b600082013567ffffffffffffffff8111156109e3576109e2610720565b5b6109ef84828501610981565b91505092915050565b600060208284031215610a0e57610a0d61071b565b5b6000610a1c848285016107a4565b91505092915050565b6000602082019050610a3a6000830184610808565b92915050565b600081519050919050565b600082825260208201905092915050565b6000819050602082019050919050565b610a7581610745565b82525050565b610a8481610783565b82525050565b610a9381610817565b82525050565b606082016000820151610aaf6000850182610a6c565b506020820151610ac26020850182610a7b565b506040820151610ad56040850182610a8a565b50505050565b6000610ae78383610a99565b60608301905092915050565b6000602082019050919050565b6000610b0b82610a40565b610b158185610a4b565b9350610b2083610a5c565b8060005b83811015610b51578151610b388882610adb565b9750610b4383610af3565b925050600181019050610b24565b5085935050505092915050565b60006020820190508181036000830152610b788184610b00565b905092915050565b600081519050919050565b600082825260208201905092915050565b60005b83811015610bba578082015181840152602081019050610b9f565b60008484015250505050565b6000610bd182610b80565b610bdb8185610b8b565b9350610beb818560208601610b9c565b610bf481610873565b840191505092915050565b60006060820190508181036000830152610c198186610bc6565b9050610c2860208301856107f9565b610c356040830184610823565b949350505050565b7f4e487b7100000000000000000000000000000000000000000000000000000000600052601160045260246000fd5b6000610c7782610783565b91507fffffffffffffffffffffffffffffffffffffffffffffffffffffffffffffffff8203610ca957610ca8610c3d565b5b600182019050919050565b7f4e487b7100000000000000000000000000000000000000000000000000000000600052602260045260246000fd5b60006002820490506001821680610cfb57607f821691505b602082108103610d0e57610d0d610cb4565b5b50919050565b60008190508160005260206000209050919050565b60006020601f8301049050919050565b600082821b905092915050565b600060088302610d767fffffffffffffffffffffffffffffffffffffffffffffffffffffffffffffffff82610d39565b610d808683610d39565b95508019841693508086168417925050509392505050565b6000819050919050565b6000610dbd610db8610db384610783565b610d98565b610783565b9050919050565b6000819050919050565b610dd783610da2565b610deb610de382610dc4565b848454610d46565b825550505050565b600090565b610e00610df3565b610e0b818484610dce565b505050565b5b81811015610e2f57610e24600082610df8565b600181019050610e11565b5050565b601f821115610e7457610e4581610d14565b610e4e84610d29565b81016020851015610e5d578190505b610e71610e6985610d29565b830182610e10565b50505b505050565b600082821c905092915050565b6000610e9760001984600802610e79565b1980831691505092915050565b6000610eb08383610e86565b9150826002028217905092915050565b610ec982610b80565b67ffffffffffffffff811115610ee257610ee1610884565b5b610eec8254610ce3565b610ef7828285610e33565b600060209050601f831160018114610f2a5760008415610f18578287015190505b610f228582610ea4565b865550610f8a565b601f198416610f3886610d14565b60005b82811015610f6057848901518255600182019150602085019450602081019050610f3b565b86831015610f7d5784890151610f79601f891682610e86565b8355505b6001600288020188555050505b505050505050565b7f436f75727365206973206e6f7420616374697665000000000000000000000000600082015250565b6000610fc8601483610b8b565b9150610fd382610f92565b602082019050919050565b60006020820190508181036000830152610ff781610fbb565b9050919050565b7f4f6e6c792074686520696e7374727563746f722063616e20646561637469766160008201527f74652074686520636f7572736500000000000000000000000000000000000000602082015250565b600061105a602d83610b8b565b915061106582610ffe565b604082019050919050565b600060208201905081810360008301526110898161104d565b905091905056fea264697066735822122002e1bb898e996a30e2f5f96ea0b5c1d07c7fb2990c34dc30903bc019ed72966764736f6c63430008180033","opcodes":"PUSH1 0x80 PUSH1 0x40 MSTORE CALLVALUE DUP1 ISZERO PUSH2 0x10 JUMPI PUSH1 0x0 DUP1 REVERT JUMPDEST POP PUSH2 0x10C6 DUP1 PUSH2 0x20 PUSH1 0x0 CODECOPY PUSH1 0x0 RETURN INVALID PUSH1 0x80 PUSH1 0x40 MSTORE CALLVALUE DUP1 ISZERO PUSH2 0x10 JUMPI PUSH1 0x0 DUP1 REVERT JUMPDEST POP PUSH1 0x4 CALLDATASIZE LT PUSH2 0x7D JUMPI PUSH1 0x0 CALLDATALOAD PUSH1 0xE0 SHR DUP1 PUSH4 0x66055159 GT PUSH2 0x5B JUMPI DUP1 PUSH4 0x66055159 EQ PUSH2 0xEC JUMPI DUP1 PUSH4 0x8B342F35 EQ PUSH2 0x10A JUMPI DUP1 PUSH4 0x96F979D2 EQ PUSH2 0x128 JUMPI DUP1 PUSH4 0xAC85495D EQ PUSH2 0x15A JUMPI PUSH2 0x7D JUMP JUMPDEST DUP1 PUSH4 0x7F910F8 EQ PUSH2 0x82 JUMPI DUP1 PUSH4 0x2E554076 EQ PUSH2 0xB4 JUMPI DUP1 PUSH4 0x5E52DA27 EQ PUSH2 0xD0 JUMPI JUMPDEST PUSH1 0x0 DUP1 REVERT JUMPDEST PUSH2 0x9C PUSH1 0x4 DUP1 CALLDATASIZE SUB DUP2 ADD SWAP1 PUSH2 0x97 SWAP2 SWAP1 PUSH2 0x7B9 JUMP JUMPDEST PUSH2 0x176 JUMP JUMPDEST PUSH1 0x40 MLOAD PUSH2 0xAB SWAP4 SWAP3 SWAP2 SWAP1 PUSH2 0x832 JUMP JUMPDEST PUSH1 0x40 MLOAD DUP1 SWAP2 SUB SWAP1 RETURN JUMPDEST PUSH2 0xCE PUSH1 0x4 DUP1 CALLDATASIZE SUB DUP2 ADD SWAP1 PUSH2 0xC9 SWAP2 SWAP1 PUSH2 0x9AF JUMP JUMPDEST PUSH2 0x1EA JUMP JUMPDEST STOP JUMPDEST PUSH2 0xEA PUSH1 0x4 DUP1 CALLDATASIZE SUB DUP2 ADD SWAP1 PUSH2 0xE5 SWAP2 SWAP1 PUSH2 0x9F8 JUMP JUMPDEST PUSH2 0x2CD JUMP JUMPDEST STOP JUMPDEST PUSH2 0xF4 PUSH2 0x441 JUMP JUMPDEST PUSH1 0x40 MLOAD PUSH2 0x101 SWAP2 SWAP1 PUSH2 0xA25 JUMP JUMPDEST PUSH1 0x40 MLOAD DUP1 SWAP2 SUB SWAP1 RETURN JUMPDEST PUSH2 0x112 PUSH2 0x447 JUMP JUMPDEST PUSH1 0x40 MLOAD PUSH2 0x11F SWAP2 SWAP1 PUSH2 0xB5E JUMP JUMPDEST PUSH1 0x40 MLOAD DUP1 SWAP2 SUB SWAP1 RETURN JUMPDEST PUSH2 0x142 PUSH1 0x4 DUP1 CALLDATASIZE SUB DUP2 ADD SWAP1 PUSH2 0x13D SWAP2 SWAP1 PUSH2 0x9F8 JUMP JUMPDEST PUSH2 0x55E JUMP JUMPDEST PUSH1 0x40 MLOAD PUSH2 0x151 SWAP4 SWAP3 SWAP2 SWAP1 PUSH2 0xBFF JUMP JUMPDEST PUSH1 0x40 MLOAD DUP1 SWAP2 SUB SWAP1 RETURN JUMPDEST PUSH2 0x174 PUSH1 0x4 DUP1 CALLDATASIZE SUB DUP2 ADD SWAP1 PUSH2 0x16F SWAP2 SWAP1 PUSH2 0x9F8 JUMP JUMPDEST PUSH2 0x63D JUMP JUMPDEST STOP JUMPDEST PUSH1 0x1 PUSH1 0x20 MSTORE DUP2 PUSH1 0x0 MSTORE PUSH1 0x40 PUSH1 0x0 KECCAK256 DUP2 DUP2 SLOAD DUP2 LT PUSH2 0x192 JUMPI PUSH1 0x0 DUP1 REVERT JUMPDEST SWAP1 PUSH1 0x0 MSTORE PUSH1 0x20 PUSH1 0x0 KECCAK256 SWAP1 PUSH1 0x3 MUL ADD PUSH1 0x0 SWAP2 POP SWAP2 POP POP DUP1 PUSH1 0x0 ADD PUSH1 0x0 SWAP1 SLOAD SWAP1 PUSH2 0x100 EXP SWAP1 DIV PUSH20 0xFFFFFFFFFFFFFFFFFFFFFFFFFFFFFFFFFFFFFFFF AND SWAP1 DUP1 PUSH1 0x1 ADD SLOAD SWAP1 DUP1 PUSH1 0x2 ADD PUSH1 0x0 SWAP1 SLOAD SWAP1 PUSH2 0x100 EXP SWAP1 DIV PUSH1 0xFF AND SWAP1 POP DUP4 JUMP JUMPDEST PUSH1 0x2 PUSH1 0x0 DUP2 SLOAD DUP1 SWAP3 SWAP2 SWAP1 PUSH2 0x1FD SWAP1 PUSH2 0xC6C JUMP JUMPDEST SWAP2 SWAP1 POP SSTORE POP PUSH1 0x40 MLOAD DUP1 PUSH1 0x60 ADD PUSH1 0x40 MSTORE DUP1 DUP3 DUP2 MSTORE PUSH1 0x20 ADD CALLER PUSH20 0xFFFFFFFFFFFFFFFFFFFFFFFFFFFFFFFFFFFFFFFF AND DUP2 MSTORE PUSH1 0x20 ADD PUSH1 0x1 ISZERO ISZERO DUP2 MSTORE POP PUSH1 0x0 DUP1 PUSH1 0x2 SLOAD DUP2 MSTORE PUSH1 0x20 ADD SWAP1 DUP2 MSTORE PUSH1 0x20 ADD PUSH1 0x0 KECCAK256 PUSH1 0x0 DUP3 ADD MLOAD DUP2 PUSH1 0x0 ADD SWAP1 DUP2 PUSH2 0x25F SWAP2 SWAP1 PUSH2 0xEC0 JUMP JUMPDEST POP PUSH1 0x20 DUP3 ADD MLOAD DUP2 PUSH1 0x1 ADD PUSH1 0x0 PUSH2 0x100 EXP DUP2 SLOAD DUP2 PUSH20 0xFFFFFFFFFFFFFFFFFFFFFFFFFFFFFFFFFFFFFFFF MUL NOT AND SWAP1 DUP4 PUSH20 0xFFFFFFFFFFFFFFFFFFFFFFFFFFFFFFFFFFFFFFFF AND MUL OR SWAP1 SSTORE POP PUSH1 0x40 DUP3 ADD MLOAD DUP2 PUSH1 0x1 ADD PUSH1 0x14 PUSH2 0x100 EXP DUP2 SLOAD DUP2 PUSH1 0xFF MUL NOT AND SWAP1 DUP4 ISZERO ISZERO MUL OR SWAP1 SSTORE POP SWAP1 POP POP POP JUMP JUMPDEST PUSH1 0x0 DUP1 DUP3 DUP2 MSTORE PUSH1 0x20 ADD SWAP1 DUP2 MSTORE PUSH1 0x20 ADD PUSH1 0x0 KECCAK256 PUSH1 0x1 ADD PUSH1 0x14 SWAP1 SLOAD SWAP1 PUSH2 0x100 EXP SWAP1 DIV PUSH1 0xFF AND PUSH2 0x32F JUMPI PUSH1 0x40 MLOAD PUSH32 0x8C379A000000000000000000000000000000000000000000000000000000000 DUP2 MSTORE PUSH1 0x4 ADD PUSH2 0x326 SWAP1 PUSH2 0xFDE JUMP JUMPDEST PUSH1 0x40 MLOAD DUP1 SWAP2 SUB SWAP1 REVERT JUMPDEST PUSH1 0x1 PUSH1 0x0 CALLER PUSH20 0xFFFFFFFFFFFFFFFFFFFFFFFFFFFFFFFFFFFFFFFF AND PUSH20 0xFFFFFFFFFFFFFFFFFFFFFFFFFFFFFFFFFFFFFFFF AND DUP2 MSTORE PUSH1 0x20 ADD SWAP1 DUP2 MSTORE PUSH1 0x20 ADD PUSH1 0x0 KECCAK256 PUSH1 0x40 MLOAD DUP1 PUSH1 0x60 ADD PUSH1 0x40 MSTORE DUP1 CALLER PUSH20 0xFFFFFFFFFFFFFFFFFFFFFFFFFFFFFFFFFFFFFFFF AND DUP2 MSTORE PUSH1 0x20 ADD DUP4 DUP2 MSTORE PUSH1 0x20 ADD PUSH1 0x1 ISZERO ISZERO DUP2 MSTORE POP SWAP1 DUP1 PUSH1 0x1 DUP2 SLOAD ADD DUP1 DUP3 SSTORE DUP1 SWAP2 POP POP PUSH1 0x1 SWAP1 SUB SWAP1 PUSH1 0x0 MSTORE PUSH1 0x20 PUSH1 0x0 KECCAK256 SWAP1 PUSH1 0x3 MUL ADD PUSH1 0x0 SWAP1 SWAP2 SWAP1 SWAP2 SWAP1 SWAP2 POP PUSH1 0x0 DUP3 ADD MLOAD DUP2 PUSH1 0x0 ADD PUSH1 0x0 PUSH2 0x100 EXP DUP2 SLOAD DUP2 PUSH20 0xFFFFFFFFFFFFFFFFFFFFFFFFFFFFFFFFFFFFFFFF MUL NOT AND SWAP1 DUP4 PUSH20 0xFFFFFFFFFFFFFFFFFFFFFFFFFFFFFFFFFFFFFFFF AND MUL OR SWAP1 SSTORE POP PUSH1 0x20 DUP3 ADD MLOAD DUP2 PUSH1 0x1 ADD SSTORE PUSH1 0x40 DUP3 ADD MLOAD DUP2 PUSH1 0x2 ADD PUSH1 0x0 PUSH2 0x100 EXP DUP2 SLOAD DUP2 PUSH1 0xFF MUL NOT AND SWAP1 DUP4 ISZERO ISZERO MUL OR SWAP1 SSTORE POP POP POP POP JUMP JUMPDEST PUSH1 0x2 SLOAD DUP2 JUMP JUMPDEST PUSH1 0x60 PUSH1 0x1 PUSH1 0x0 CALLER PUSH20 0xFFFFFFFFFFFFFFFFFFFFFFFFFFFFFFFFFFFFFFFF AND PUSH20 0xFFFFFFFFFFFFFFFFFFFFFFFFFFFFFFFFFFFFFFFF AND DUP2 MSTORE PUSH1 0x20 ADD SWAP1 DUP2 MSTORE PUSH1 0x20 ADD PUSH1 0x0 KECCAK256 DUP1 SLOAD DUP1 PUSH1 0x20 MUL PUSH1 0x20 ADD PUSH1 0x40 MLOAD SWAP1 DUP2 ADD PUSH1 0x40 MSTORE DUP1 SWAP3 SWAP2 SWAP1 DUP2 DUP2 MSTORE PUSH1 0x20 ADD PUSH1 0x0 SWAP1 JUMPDEST DUP3 DUP3 LT ISZERO PUSH2 0x555 JUMPI DUP4 DUP3 SWAP1 PUSH1 0x0 MSTORE PUSH1 0x20 PUSH1 0x0 KECCAK256 SWAP1 PUSH1 0x3 MUL ADD PUSH1 0x40 MLOAD DUP1 PUSH1 0x60 ADD PUSH1 0x40 MSTORE SWAP1 DUP2 PUSH1 0x0 DUP3 ADD PUSH1 0x0 SWAP1 SLOAD SWAP1 PUSH2 0x100 EXP SWAP1 DIV PUSH20 0xFFFFFFFFFFFFFFFFFFFFFFFFFFFFFFFFFFFFFFFF AND PUSH20 0xFFFFFFFFFFFFFFFFFFFFFFFFFFFFFFFFFFFFFFFF AND PUSH20 0xFFFFFFFFFFFFFFFFFFFFFFFFFFFFFFFFFFFFFFFF AND DUP2 MSTORE PUSH1 0x20 ADD PUSH1 0x1 DUP3 ADD SLOAD DUP2 MSTORE PUSH1 0x20 ADD PUSH1 0x2 DUP3 ADD PUSH1 0x0 SWAP1 SLOAD SWAP1 PUSH2 0x100 EXP SWAP1 DIV PUSH1 0xFF AND ISZERO ISZERO ISZERO ISZERO DUP2 MSTORE POP POP DUP2 MSTORE PUSH1 0x20 ADD SWAP1 PUSH1 0x1 ADD SWAP1 PUSH2 0x4A8 JUMP JUMPDEST POP POP POP POP SWAP1 POP SWAP1 JUMP JUMPDEST PUSH1 0x0 PUSH1 0x20 MSTORE DUP1 PUSH1 0x0 MSTORE PUSH1 0x40 PUSH1 0x0 KECCAK256 PUSH1 0x0 SWAP2 POP SWAP1 POP DUP1 PUSH1 0x0 ADD DUP1 SLOAD PUSH2 0x581 SWAP1 PUSH2 0xCE3 JUMP JUMPDEST DUP1 PUSH1 0x1F ADD PUSH1 0x20 DUP1 SWAP2 DIV MUL PUSH1 0x20 ADD PUSH1 0x40 MLOAD SWAP1 DUP2 ADD PUSH1 0x40 MSTORE DUP1 SWAP3 SWAP2 SWAP1 DUP2 DUP2 MSTORE PUSH1 0x20 ADD DUP3 DUP1 SLOAD PUSH2 0x5AD SWAP1 PUSH2 0xCE3 JUMP JUMPDEST DUP1 ISZERO PUSH2 0x5FA JUMPI DUP1 PUSH1 0x1F LT PUSH2 0x5CF JUMPI PUSH2 0x100 DUP1 DUP4 SLOAD DIV MUL DUP4 MSTORE SWAP2 PUSH1 0x20 ADD SWAP2 PUSH2 0x5FA JUMP JUMPDEST DUP3 ADD SWAP2 SWAP1 PUSH1 0x0 MSTORE PUSH1 0x20 PUSH1 0x0 KECCAK256 SWAP1 JUMPDEST DUP2 SLOAD DUP2 MSTORE SWAP1 PUSH1 0x1 ADD SWAP1 PUSH1 0x20 ADD DUP1 DUP4 GT PUSH2 0x5DD JUMPI DUP3 SWAP1 SUB PUSH1 0x1F AND DUP3 ADD SWAP2 JUMPDEST POP POP POP POP POP SWAP1 DUP1 PUSH1 0x1 ADD PUSH1 0x0 SWAP1 SLOAD SWAP1 PUSH2 0x100 EXP SWAP1 DIV PUSH20 0xFFFFFFFFFFFFFFFFFFFFFFFFFFFFFFFFFFFFFFFF AND SWAP1 DUP1 PUSH1 0x1 ADD PUSH1 0x14 SWAP1 SLOAD SWAP1 PUSH2 0x100 EXP SWAP1 DIV PUSH1 0xFF AND SWAP1 POP DUP4 JUMP JUMPDEST CALLER PUSH20 0xFFFFFFFFFFFFFFFFFFFFFFFFFFFFFFFFFFFFFFFF AND PUSH1 0x0 DUP1 DUP4 DUP2 MSTORE PUSH1 0x20 ADD SWAP1 DUP2 MSTORE PUSH1 0x20 ADD PUSH1 0x0 KECCAK256 PUSH1 0x1 ADD PUSH1 0x0 SWAP1 SLOAD SWAP1 PUSH2 0x100 EXP SWAP1 DIV PUSH20 0xFFFFFFFFFFFFFFFFFFFFFFFFFFFFFFFFFFFFFFFF AND PUSH20 0xFFFFFFFFFFFFFFFFFFFFFFFFFFFFFFFFFFFFFFFF AND EQ PUSH2 0x6E0 JUMPI PUSH1 0x40 MLOAD PUSH32 0x8C379A000000000000000000000000000000000000000000000000000000000 DUP2 MSTORE PUSH1 0x4 ADD PUSH2 0x6D7 SWAP1 PUSH2 0x1070 JUMP JUMPDEST PUSH1 0x40 MLOAD DUP1 SWAP2 SUB SWAP1 REVERT JUMPDEST PUSH1 0x0 DUP1 PUSH1 0x0 DUP4 DUP2 MSTORE PUSH1 0x20 ADD SWAP1 DUP2 MSTORE PUSH1 0x20 ADD PUSH1 0x0 KECCAK256 PUSH1 0x1 ADD PUSH1 0x14 PUSH2 0x100 EXP DUP2 SLOAD DUP2 PUSH1 0xFF MUL NOT AND SWAP1 DUP4 ISZERO ISZERO MUL OR SWAP1 SSTORE POP POP JUMP JUMPDEST PUSH1 0x0 PUSH1 0x40 MLOAD SWAP1 POP SWAP1 JUMP JUMPDEST PUSH1 0x0 DUP1 REVERT JUMPDEST PUSH1 0x0 DUP1 REVERT JUMPDEST PUSH1 0x0 PUSH20 0xFFFFFFFFFFFFFFFFFFFFFFFFFFFFFFFFFFFFFFFF DUP3 AND SWAP1 POP SWAP2 SWAP1 POP JUMP JUMPDEST PUSH1 0x0 PUSH2 0x750 DUP3 PUSH2 0x725 JUMP JUMPDEST SWAP1 POP SWAP2 SWAP1 POP JUMP JUMPDEST PUSH2 0x760 DUP2 PUSH2 0x745 JUMP JUMPDEST DUP2 EQ PUSH2 0x76B JUMPI PUSH1 0x0 DUP1 REVERT JUMPDEST POP JUMP JUMPDEST PUSH1 0x0 DUP2 CALLDATALOAD SWAP1 POP PUSH2 0x77D DUP2 PUSH2 0x757 JUMP JUMPDEST SWAP3 SWAP2 POP POP JUMP JUMPDEST PUSH1 0x0 DUP2 SWAP1 POP SWAP2 SWAP1 POP JUMP JUMPDEST PUSH2 0x796 DUP2 PUSH2 0x783 JUMP JUMPDEST DUP2 EQ PUSH2 0x7A1 JUMPI PUSH1 0x0 DUP1 REVERT JUMPDEST POP JUMP JUMPDEST PUSH1 0x0 DUP2 CALLDATALOAD SWAP1 POP PUSH2 0x7B3 DUP2 PUSH2 0x78D JUMP JUMPDEST SWAP3 SWAP2 POP POP JUMP JUMPDEST PUSH1 0x0 DUP1 PUSH1 0x40 DUP4 DUP6 SUB SLT ISZERO PUSH2 0x7D0 JUMPI PUSH2 0x7CF PUSH2 0x71B JUMP JUMPDEST JUMPDEST PUSH1 0x0 PUSH2 0x7DE DUP6 DUP3 DUP7 ADD PUSH2 0x76E JUMP JUMPDEST SWAP3 POP POP PUSH1 0x20 PUSH2 0x7EF DUP6 DUP3 DUP7 ADD PUSH2 0x7A4 JUMP JUMPDEST SWAP2 POP POP SWAP3 POP SWAP3 SWAP1 POP JUMP JUMPDEST PUSH2 0x802 DUP2 PUSH2 0x745 JUMP JUMPDEST DUP3 MSTORE POP POP JUMP JUMPDEST PUSH2 0x811 DUP2 PUSH2 0x783 JUMP JUMPDEST DUP3 MSTORE POP POP JUMP JUMPDEST PUSH1 0x0 DUP2 ISZERO ISZERO SWAP1 POP SWAP2 SWAP1 POP JUMP JUMPDEST PUSH2 0x82C DUP2 PUSH2 0x817 JUMP JUMPDEST DUP3 MSTORE POP POP JUMP JUMPDEST PUSH1 0x0 PUSH1 0x60 DUP3 ADD SWAP1 POP PUSH2 0x847 PUSH1 0x0 DUP4 ADD DUP7 PUSH2 0x7F9 JUMP JUMPDEST PUSH2 0x854 PUSH1 0x20 DUP4 ADD DUP6 PUSH2 0x808 JUMP JUMPDEST PUSH2 0x861 PUSH1 0x40 DUP4 ADD DUP5 PUSH2 0x823 JUMP JUMPDEST SWAP5 SWAP4 POP POP POP POP JUMP JUMPDEST PUSH1 0x0 DUP1 REVERT JUMPDEST PUSH1 0x0 DUP1 REVERT JUMPDEST PUSH1 0x0 PUSH1 0x1F NOT PUSH1 0x1F DUP4 ADD AND SWAP1 POP SWAP2 SWAP1 POP JUMP JUMPDEST PUSH32 0x4E487B7100000000000000000000000000000000000000000000000000000000 PUSH1 0x0 MSTORE PUSH1 0x41 PUSH1 0x4 MSTORE PUSH1 0x24 PUSH1 0x0 REVERT JUMPDEST PUSH2 0x8BC DUP3 PUSH2 0x873 JUMP JUMPDEST DUP2 ADD DUP2 DUP2 LT PUSH8 0xFFFFFFFFFFFFFFFF DUP3 GT OR ISZERO PUSH2 0x8DB JUMPI PUSH2 0x8DA PUSH2 0x884 JUMP JUMPDEST JUMPDEST DUP1 PUSH1 0x40 MSTORE POP POP POP JUMP JUMPDEST PUSH1 0x0 PUSH2 0x8EE PUSH2 0x711 JUMP JUMPDEST SWAP1 POP PUSH2 0x8FA DUP3 DUP3 PUSH2 0x8B3 JUMP JUMPDEST SWAP2 SWAP1 POP JUMP JUMPDEST PUSH1 0x0 PUSH8 0xFFFFFFFFFFFFFFFF DUP3 GT ISZERO PUSH2 0x91A JUMPI PUSH2 0x919 PUSH2 0x884 JUMP JUMPDEST JUMPDEST PUSH2 0x923 DUP3 PUSH2 0x873 JUMP JUMPDEST SWAP1 POP PUSH1 0x20 DUP2 ADD SWAP1 POP SWAP2 SWAP1 POP JUMP JUMPDEST DUP3 DUP2 DUP4 CALLDATACOPY PUSH1 0x0 DUP4 DUP4 ADD MSTORE POP POP POP JUMP JUMPDEST PUSH1 0x0 PUSH2 0x952 PUSH2 0x94D DUP5 PUSH2 0x8FF JUMP JUMPDEST PUSH2 0x8E4 JUMP JUMPDEST SWAP1 POP DUP3 DUP2 MSTORE PUSH1 0x20 DUP2 ADD DUP5 DUP5 DUP5 ADD GT ISZERO PUSH2 0x96E JUMPI PUSH2 0x96D PUSH2 0x86E JUMP JUMPDEST JUMPDEST PUSH2 0x979 DUP5 DUP3 DUP6 PUSH2 0x930 JUMP JUMPDEST POP SWAP4 SWAP3 POP POP POP JUMP JUMPDEST PUSH1 0x0 DUP3 PUSH1 0x1F DUP4 ADD SLT PUSH2 0x996 JUMPI PUSH2 0x995 PUSH2 0x869 JUMP JUMPDEST JUMPDEST DUP2 CALLDATALOAD PUSH2 0x9A6 DUP5 DUP3 PUSH1 0x20 DUP7 ADD PUSH2 0x93F JUMP JUMPDEST SWAP2 POP POP SWAP3 SWAP2 POP POP JUMP JUMPDEST PUSH1 0x0 PUSH1 0x20 DUP3 DUP5 SUB SLT ISZERO PUSH2 0x9C5 JUMPI PUSH2 0x9C4 PUSH2 0x71B JUMP JUMPDEST JUMPDEST PUSH1 0x0 DUP3 ADD CALLDATALOAD PUSH8 0xFFFFFFFFFFFFFFFF DUP2 GT ISZERO PUSH2 0x9E3 JUMPI PUSH2 0x9E2 PUSH2 0x720 JUMP JUMPDEST JUMPDEST PUSH2 0x9EF DUP5 DUP3 DUP6 ADD PUSH2 0x981 JUMP JUMPDEST SWAP2 POP POP SWAP3 SWAP2 POP POP JUMP JUMPDEST PUSH1 0x0 PUSH1 0x20 DUP3 DUP5 SUB SLT ISZERO PUSH2 0xA0E JUMPI PUSH2 0xA0D PUSH2 0x71B JUMP JUMPDEST JUMPDEST PUSH1 0x0 PUSH2 0xA1C DUP5 DUP3 DUP6 ADD PUSH2 0x7A4 JUMP JUMPDEST SWAP2 POP POP SWAP3 SWAP2 POP POP JUMP JUMPDEST PUSH1 0x0 PUSH1 0x20 DUP3 ADD SWAP1 POP PUSH2 0xA3A PUSH1 0x0 DUP4 ADD DUP5 PUSH2 0x808 JUMP JUMPDEST SWAP3 SWAP2 POP POP JUMP JUMPDEST PUSH1 0x0 DUP2 MLOAD SWAP1 POP SWAP2 SWAP1 POP JUMP JUMPDEST PUSH1 0x0 DUP3 DUP3 MSTORE PUSH1 0x20 DUP3 ADD SWAP1 POP SWAP3 SWAP2 POP POP JUMP JUMPDEST PUSH1 0x0 DUP2 SWAP1 POP PUSH1 0x20 DUP3 ADD SWAP1 POP SWAP2 SWAP1 POP JUMP JUMPDEST PUSH2 0xA75 DUP2 PUSH2 0x745 JUMP JUMPDEST DUP3 MSTORE POP POP JUMP JUMPDEST PUSH2 0xA84 DUP2 PUSH2 0x783 JUMP JUMPDEST DUP3 MSTORE POP POP JUMP JUMPDEST PUSH2 0xA93 DUP2 PUSH2 0x817 JUMP JUMPDEST DUP3 MSTORE POP POP JUMP JUMPDEST PUSH1 0x60 DUP3 ADD PUSH1 0x0 DUP3 ADD MLOAD PUSH2 0xAAF PUSH1 0x0 DUP6 ADD DUP3 PUSH2 0xA6C JUMP JUMPDEST POP PUSH1 0x20 DUP3 ADD MLOAD PUSH2 0xAC2 PUSH1 0x20 DUP6 ADD DUP3 PUSH2 0xA7B JUMP JUMPDEST POP PUSH1 0x40 DUP3 ADD MLOAD PUSH2 0xAD5 PUSH1 0x40 DUP6 ADD DUP3 PUSH2 0xA8A JUMP JUMPDEST POP POP POP POP JUMP JUMPDEST PUSH1 0x0 PUSH2 0xAE7 DUP4 DUP4 PUSH2 0xA99 JUMP JUMPDEST PUSH1 0x60 DUP4 ADD SWAP1 POP SWAP3 SWAP2 POP POP JUMP JUMPDEST PUSH1 0x0 PUSH1 0x20 DUP3 ADD SWAP1 POP SWAP2 SWAP1 POP JUMP JUMPDEST PUSH1 0x0 PUSH2 0xB0B DUP3 PUSH2 0xA40 JUMP JUMPDEST PUSH2 0xB15 DUP2 DUP6 PUSH2 0xA4B JUMP JUMPDEST SWAP4 POP PUSH2 0xB20 DUP4 PUSH2 0xA5C JUMP JUMPDEST DUP1 PUSH1 0x0 JUMPDEST DUP4 DUP2 LT ISZERO PUSH2 0xB51 JUMPI DUP2 MLOAD PUSH2 0xB38 DUP9 DUP3 PUSH2 0xADB JUMP JUMPDEST SWAP8 POP PUSH2 0xB43 DUP4 PUSH2 0xAF3 JUMP JUMPDEST SWAP3 POP POP PUSH1 0x1 DUP2 ADD SWAP1 POP PUSH2 0xB24 JUMP JUMPDEST POP DUP6 SWAP4 POP POP POP POP SWAP3 SWAP2 POP POP JUMP JUMPDEST PUSH1 0x0 PUSH1 0x20 DUP3 ADD SWAP1 POP DUP2 DUP2 SUB PUSH1 0x0 DUP4 ADD MSTORE PUSH2 0xB78 DUP2 DUP5 PUSH2 0xB00 JUMP JUMPDEST SWAP1 POP SWAP3 SWAP2 POP POP JUMP JUMPDEST PUSH1 0x0 DUP2 MLOAD SWAP1 POP SWAP2 SWAP1 POP JUMP JUMPDEST PUSH1 0x0 DUP3 DUP3 MSTORE PUSH1 0x20 DUP3 ADD SWAP1 POP SWAP3 SWAP2 POP POP JUMP JUMPDEST PUSH1 0x0 JUMPDEST DUP4 DUP2 LT ISZERO PUSH2 0xBBA JUMPI DUP1 DUP3 ADD MLOAD DUP2 DUP5 ADD MSTORE PUSH1 0x20 DUP2 ADD SWAP1 POP PUSH2 0xB9F JUMP JUMPDEST PUSH1 0x0 DUP5 DUP5 ADD MSTORE POP POP POP POP JUMP JUMPDEST PUSH1 0x0 PUSH2 0xBD1 DUP3 PUSH2 0xB80 JUMP JUMPDEST PUSH2 0xBDB DUP2 DUP6 PUSH2 0xB8B JUMP JUMPDEST SWAP4 POP PUSH2 0xBEB DUP2 DUP6 PUSH1 0x20 DUP7 ADD PUSH2 0xB9C JUMP JUMPDEST PUSH2 0xBF4 DUP2 PUSH2 0x873 JUMP JUMPDEST DUP5 ADD SWAP2 POP POP SWAP3 SWAP2 POP POP JUMP JUMPDEST PUSH1 0x0 PUSH1 0x60 DUP3 ADD SWAP1 POP DUP2 DUP2 SUB PUSH1 0x0 DUP4 ADD MSTORE PUSH2 0xC19 DUP2 DUP7 PUSH2 0xBC6 JUMP JUMPDEST SWAP1 POP PUSH2 0xC28 PUSH1 0x20 DUP4 ADD DUP6 PUSH2 0x7F9 JUMP JUMPDEST PUSH2 0xC35 PUSH1 0x40 DUP4 ADD DUP5 PUSH2 0x823 JUMP JUMPDEST SWAP5 SWAP4 POP POP POP POP JUMP JUMPDEST PUSH32 0x4E487B7100000000000000000000000000000000000000000000000000000000 PUSH1 0x0 MSTORE PUSH1 0x11 PUSH1 0x4 MSTORE PUSH1 0x24 PUSH1 0x0 REVERT JUMPDEST PUSH1 0x0 PUSH2 0xC77 DUP3 PUSH2 0x783 JUMP JUMPDEST SWAP2 POP PUSH32 0xFFFFFFFFFFFFFFFFFFFFFFFFFFFFFFFFFFFFFFFFFFFFFFFFFFFFFFFFFFFFFFFF DUP3 SUB PUSH2 0xCA9 JUMPI PUSH2 0xCA8 PUSH2 0xC3D JUMP JUMPDEST JUMPDEST PUSH1 0x1 DUP3 ADD SWAP1 POP SWAP2 SWAP1 POP JUMP JUMPDEST PUSH32 0x4E487B7100000000000000000000000000000000000000000000000000000000 PUSH1 0x0 MSTORE PUSH1 0x22 PUSH1 0x4 MSTORE PUSH1 0x24 PUSH1 0x0 REVERT JUMPDEST PUSH1 0x0 PUSH1 0x2 DUP3 DIV SWAP1 POP PUSH1 0x1 DUP3 AND DUP1 PUSH2 0xCFB JUMPI PUSH1 0x7F DUP3 AND SWAP2 POP JUMPDEST PUSH1 0x20 DUP3 LT DUP2 SUB PUSH2 0xD0E JUMPI PUSH2 0xD0D PUSH2 0xCB4 JUMP JUMPDEST JUMPDEST POP SWAP2 SWAP1 POP JUMP JUMPDEST PUSH1 0x0 DUP2 SWAP1 POP DUP2 PUSH1 0x0 MSTORE PUSH1 0x20 PUSH1 0x0 KECCAK256 SWAP1 POP SWAP2 SWAP1 POP JUMP JUMPDEST PUSH1 0x0 PUSH1 0x20 PUSH1 0x1F DUP4 ADD DIV SWAP1 POP SWAP2 SWAP1 POP JUMP JUMPDEST PUSH1 0x0 DUP3 DUP3 SHL SWAP1 POP SWAP3 SWAP2 POP POP JUMP JUMPDEST PUSH1 0x0 PUSH1 0x8 DUP4 MUL PUSH2 0xD76 PUSH32 0xFFFFFFFFFFFFFFFFFFFFFFFFFFFFFFFFFFFFFFFFFFFFFFFFFFFFFFFFFFFFFFFF DUP3 PUSH2 0xD39 JUMP JUMPDEST PUSH2 0xD80 DUP7 DUP4 PUSH2 0xD39 JUMP JUMPDEST SWAP6 POP DUP1 NOT DUP5 AND SWAP4 POP DUP1 DUP7 AND DUP5 OR SWAP3 POP POP POP SWAP4 SWAP3 POP POP POP JUMP JUMPDEST PUSH1 0x0 DUP2 SWAP1 POP SWAP2 SWAP1 POP JUMP JUMPDEST PUSH1 0x0 PUSH2 0xDBD PUSH2 0xDB8 PUSH2 0xDB3 DUP5 PUSH2 0x783 JUMP JUMPDEST PUSH2 0xD98 JUMP JUMPDEST PUSH2 0x783 JUMP JUMPDEST SWAP1 POP SWAP2 SWAP1 POP JUMP JUMPDEST PUSH1 0x0 DUP2 SWAP1 POP SWAP2 SWAP1 POP JUMP JUMPDEST PUSH2 0xDD7 DUP4 PUSH2 0xDA2 JUMP JUMPDEST PUSH2 0xDEB PUSH2 0xDE3 DUP3 PUSH2 0xDC4 JUMP JUMPDEST DUP5 DUP5 SLOAD PUSH2 0xD46 JUMP JUMPDEST DUP3 SSTORE POP POP POP POP JUMP JUMPDEST PUSH1 0x0 SWAP1 JUMP JUMPDEST PUSH2 0xE00 PUSH2 0xDF3 JUMP JUMPDEST PUSH2 0xE0B DUP2 DUP5 DUP5 PUSH2 0xDCE JUMP JUMPDEST POP POP POP JUMP JUMPDEST JUMPDEST DUP2 DUP2 LT ISZERO PUSH2 0xE2F JUMPI PUSH2 0xE24 PUSH1 0x0 DUP3 PUSH2 0xDF8 JUMP JUMPDEST PUSH1 0x1 DUP2 ADD SWAP1 POP PUSH2 0xE11 JUMP JUMPDEST POP POP JUMP JUMPDEST PUSH1 0x1F DUP3 GT ISZERO PUSH2 0xE74 JUMPI PUSH2 0xE45 DUP2 PUSH2 0xD14 JUMP JUMPDEST PUSH2 0xE4E DUP5 PUSH2 0xD29 JUMP JUMPDEST DUP2 ADD PUSH1 0x20 DUP6 LT ISZERO PUSH2 0xE5D JUMPI DUP2 SWAP1 POP JUMPDEST PUSH2 0xE71 PUSH2 0xE69 DUP6 PUSH2 0xD29 JUMP JUMPDEST DUP4 ADD DUP3 PUSH2 0xE10 JUMP JUMPDEST POP POP JUMPDEST POP POP POP JUMP JUMPDEST PUSH1 0x0 DUP3 DUP3 SHR SWAP1 POP SWAP3 SWAP2 POP POP JUMP JUMPDEST PUSH1 0x0 PUSH2 0xE97 PUSH1 0x0 NOT DUP5 PUSH1 0x8 MUL PUSH2 0xE79 JUMP JUMPDEST NOT DUP1 DUP4 AND SWAP2 POP POP SWAP3 SWAP2 POP POP JUMP JUMPDEST PUSH1 0x0 PUSH2 0xEB0 DUP4 DUP4 PUSH2 0xE86 JUMP JUMPDEST SWAP2 POP DUP3 PUSH1 0x2 MUL DUP3 OR SWAP1 POP SWAP3 SWAP2 POP POP JUMP JUMPDEST PUSH2 0xEC9 DUP3 PUSH2 0xB80 JUMP JUMPDEST PUSH8 0xFFFFFFFFFFFFFFFF DUP2 GT ISZERO PUSH2 0xEE2 JUMPI PUSH2 0xEE1 PUSH2 0x884 JUMP JUMPDEST JUMPDEST PUSH2 0xEEC DUP3 SLOAD PUSH2 0xCE3 JUMP JUMPDEST PUSH2 0xEF7 DUP3 DUP3 DUP6 PUSH2 0xE33 JUMP JUMPDEST PUSH1 0x0 PUSH1 0x20 SWAP1 POP PUSH1 0x1F DUP4 GT PUSH1 0x1 DUP2 EQ PUSH2 0xF2A JUMPI PUSH1 0x0 DUP5 ISZERO PUSH2 0xF18 JUMPI DUP3 DUP8 ADD MLOAD SWAP1 POP JUMPDEST PUSH2 0xF22 DUP6 DUP3 PUSH2 0xEA4 JUMP JUMPDEST DUP7 SSTORE POP PUSH2 0xF8A JUMP JUMPDEST PUSH1 0x1F NOT DUP5 AND PUSH2 0xF38 DUP7 PUSH2 0xD14 JUMP JUMPDEST PUSH1 0x0 JUMPDEST DUP3 DUP2 LT ISZERO PUSH2 0xF60 JUMPI DUP5 DUP10 ADD MLOAD DUP3 SSTORE PUSH1 0x1 DUP3 ADD SWAP2 POP PUSH1 0x20 DUP6 ADD SWAP5 POP PUSH1 0x20 DUP2 ADD SWAP1 POP PUSH2 0xF3B JUMP JUMPDEST DUP7 DUP4 LT ISZERO PUSH2 0xF7D JUMPI DUP5 DUP10 ADD MLOAD PUSH2 0xF79 PUSH1 0x1F DUP10 AND DUP3 PUSH2 0xE86 JUMP JUMPDEST DUP4 SSTORE POP JUMPDEST PUSH1 0x1 PUSH1 0x2 DUP9 MUL ADD DUP9 SSTORE POP POP POP JUMPDEST POP POP POP POP POP POP JUMP JUMPDEST PUSH32 0x436F75727365206973206E6F7420616374697665000000000000000000000000 PUSH1 0x0 DUP3 ADD MSTORE POP JUMP JUMPDEST PUSH1 0x0 PUSH2 0xFC8 PUSH1 0x14 DUP4 PUSH2 0xB8B JUMP JUMPDEST SWAP2 POP PUSH2 0xFD3 DUP3 PUSH2 0xF92 JUMP JUMPDEST PUSH1 0x20 DUP3 ADD SWAP1 POP SWAP2 SWAP1 POP JUMP JUMPDEST PUSH1 0x0 PUSH1 0x20 DUP3 ADD SWAP1 POP DUP2 DUP2 SUB PUSH1 0x0 DUP4 ADD MSTORE PUSH2 0xFF7 DUP2 PUSH2 0xFBB JUMP JUMPDEST SWAP1 POP SWAP2 SWAP1 POP JUMP JUMPDEST PUSH32 0x4F6E6C792074686520696E7374727563746F722063616E206465616374697661 PUSH1 0x0 DUP3 ADD MSTORE PUSH32 0x74652074686520636F7572736500000000000000000000000000000000000000 PUSH1 0x20 DUP3 ADD MSTORE POP JUMP JUMPDEST PUSH1 0x0 PUSH2 0x105A PUSH1 0x2D DUP4 PUSH2 0xB8B JUMP JUMPDEST SWAP2 POP PUSH2 0x1065 DUP3 PUSH2 0xFFE JUMP JUMPDEST PUSH1 0x40 DUP3 ADD SWAP1 POP SWAP2 SWAP1 POP JUMP JUMPDEST PUSH1 0x0 PUSH1 0x20 DUP3 ADD SWAP1 POP DUP2 DUP2 SUB PUSH1 0x0 DUP4 ADD MSTORE PUSH2 0x1089 DUP2 PUSH2 0x104D JUMP JUMPDEST SWAP1 POP SWAP2 SWAP1 POP JUMP INVALID LOG2 PUSH5 0x6970667358 0x22 SLT KECCAK256 MUL 0xE1 0xBB DUP10 DUP15 SWAP10 PUSH11 0x30E2F5F96EA0B5C1D07C7F 0xB2 SWAP10 0xC CALLVALUE 0xDC ADDRESS SWAP1 EXTCODESIZE 0xC0 NOT 0xED PUSH19 0x966764736F6C63430008180033000000000000 "},"methodIdentifiers":{"addCourse(string)":"2e554076","courseCount()":"66055159","courses(uint256)":"96f979d2","deactivateCourse(uint256)":"ac85495d","enrollInCourse(uint256)":"5e52da27","enrollments(address,uint256)":"07f910f8","getEnrollments()":"8b342f35"}}}}}