{
  "_format": "hh-sol-artifact-1",
  "contractName": "CourseEnrollment",
  "sourceName": "contracts/CourseEnrollment.sol",
  "abi": [
    {
      "inputs": [
        {
          "internalType": "string",
          "name": "_name",
          "type": "string"
        }
      ],
      "name": "addCourse",
      "outputs": [],
      "stateMutability": "nonpayable",
      "type": "function"
    },
    {
      "inputs": [],
      "name": "courseCount",
      "outputs": [
        {
          "internalType": "uint256",
          "name": "",
          "type": "uint256"
        }
      ],
      "stateMutability": "view",
      "type": "function"
    },
    {
      "inputs": [
        {
          "internalType": "uint256",
          "name": "",
          "type": "uint256"
        }
      ],
      "name": "courses",
      "outputs": [
        {
          "internalType": "string",
          "name": "name",
          "type": "string"
        },
        {
          "internalType": "address",
          "name": "instructor",
          "type": "address"
        },
        {
          "internalType": "bool",
          "name": "isActive",
          "type": "bool"
        }
      ],
      "stateMutability": "view",
      "type": "function"
    },
    {
      "inputs": [
        {
          "internalType": "uint256",
          "name": "_courseId",
          "type": "uint256"
        }
      ],
      "name": "deactivateCourse",
      "outputs": [],
      "stateMutability": "nonpayable",
      "type": "function"
    },
    {
      "inputs": [
        {
          "internalType": "uint256",
          "name": "_courseId",
          "type": "uint256"
        }
      ],
      "name": "enrollInCourse",
      "outputs": [],
      "stateMutability": "nonpayable",
      "type": "function"
    },
    {
      "inputs": [
        {
          "internalType": "address",
          "name": "",
          "type": "address"
        },
        {
          "internalType": "uint256",
          "name": "",
          "type": "uint256"
        }
      ],
      "name": "enrollments",
      "outputs": [
        {
          "internalType": "address",
          "name": "student",
          "type": "address"
        },
        {
          "internalType": "uint256",
          "name": "courseId",
          "type": "uint256"
        },
        {
          "internalType": "bool",
          "name": "isEnrolled",
          "type": "bool"
        }
      ],
      "stateMutability": "view",
      "type": "function"
    },
    {
      "inputs": [],
      "name": "getEnrollments",
      "outputs": [
        {
          "components": [
            {
              "internalType": "address",
              "name": "student",
              "type": "address"
            },
            {
              "internalType": "uint256",
              "name": "courseId",
              "type": "uint256"
            },
            {
              "internalType": "bool",
              "name": "isEnrolled",
              "type": "bool"
            }
          ],
          "internalType": "struct CourseEnrollment.Enrollment[]",
          "name": "",
          "type": "tuple[]"
        }
      ],
      "stateMutability": "view",
      "type": "function"
    }
  ],
  "bytecode": "0x608060405234801561001057600080fd5b506110c6806100206000396000f3fe608060405234801561001057600080fd5b506004361061007d5760003560e01c8063660551591161005b57806366055159146100ec5780638b342f351461010a57806396f979d214610128578063ac85495d1461015a5761007d565b806307f910f8146100825780632e554076146100b45780635e52da27146100d0575b600080fd5b61009c600480360381019061009791906107b9565b610176565b6040516100ab93929190610832565b60405180910390f35b6100ce60048036038101906100c991906109af565b6101ea565b005b6100ea60048036038101906100e591906109f8565b6102cd565b005b6100f4610441565b6040516101019190610a25565b60405180910390f35b610112610447565b60405161011f9190610b5e565b60405180910390f35b610142600480360381019061013d91906109f8565b61055e565b60405161015193929190610bff565b60405180910390f35b610174600480360381019061016f91906109f8565b61063d565b005b6001602052816000526040600020818154811061019257600080fd5b9060005260206000209060030201600091509150508060000160009054906101000a900473ffffffffffffffffffffffffffffffffffffffff16908060010154908060020160009054906101000a900460ff16905083565b600260008154809291906101fd90610c6c565b919050555060405180606001604052808281526020013373ffffffffffffffffffffffffffffffffffffffff168152602001600115158152506000806002548152602001908152602001600020600082015181600001908161025f9190610ec0565b5060208201518160010160006101000a81548173ffffffffffffffffffffffffffffffffffffffff021916908373ffffffffffffffffffffffffffffffffffffffff16021790555060408201518160010160146101000a81548160ff02191690831515021790555090505050565b60008082815260200190815260200160002060010160149054906101000a900460ff1661032f576040517f08c379a000000000000000000000000000000000000000000000000000000000815260040161032690610fde565b60405180910390fd5b600160003373ffffffffffffffffffffffffffffffffffffffff1673ffffffffffffffffffffffffffffffffffffffff16815260200190815260200160002060405180606001604052803373ffffffffffffffffffffffffffffffffffffffff16815260200183815260200160011515815250908060018154018082558091505060019003906000526020600020906003020160009091909190915060008201518160000160006101000a81548173ffffffffffffffffffffffffffffffffffffffff021916908373ffffffffffffffffffffffffffffffffffffffff1602179055506020820151816001015560408201518160020160006101000a81548160ff021916908315150217905550505050565b60025481565b6060600160003373ffffffffffffffffffffffffffffffffffffffff1673ffffffffffffffffffffffffffffffffffffffff168152602001908152602001600020805480602002602001604051908101604052809291908181526020016000905b8282101561055557838290600052602060002090600302016040518060600160405290816000820160009054906101000a900473ffffffffffffffffffffffffffffffffffffffff1673ffffffffffffffffffffffffffffffffffffffff1673ffffffffffffffffffffffffffffffffffffffff168152602001600182015481526020016002820160009054906101000a900460ff161515151581525050815260200190600101906104a8565b50505050905090565b600060205280600052604060002060009150905080600001805461058190610ce3565b80601f01602080910402602001604051908101604052809291908181526020018280546105ad90610ce3565b80156105fa5780601f106105cf576101008083540402835291602001916105fa565b820191906000526020600020905b8154815290600101906020018083116105dd57829003601f168201915b5050505050908060010160009054906101000a900473ffffffffffffffffffffffffffffffffffffffff16908060010160149054906101000a900460ff16905083565b3373ffffffffffffffffffffffffffffffffffffffff1660008083815260200190815260200160002060010160009054906101000a900473ffffffffffffffffffffffffffffffffffffffff1673ffffffffffffffffffffffffffffffffffffffff16146106e0576040517f08c379a00000000000000000000000000000000000000000000000000000000081526004016106d790611070565b60405180910390fd5b600080600083815260200190815260200160002060010160146101000a81548160ff02191690831515021790555050565b6000604051905090565b600080fd5b600080fd5b600073ffffffffffffffffffffffffffffffffffffffff82169050919050565b600061075082610725565b9050919050565b61076081610745565b811461076b57600080fd5b50565b60008135905061077d81610757565b92915050565b6000819050919050565b61079681610783565b81146107a157600080fd5b50565b6000813590506107b38161078d565b92915050565b600080604083850312156107d0576107cf61071b565b5b60006107de8582860161076e565b92505060206107ef858286016107a4565b9150509250929050565b61080281610745565b82525050565b61081181610783565b82525050565b60008115159050919050565b61082c81610817565b82525050565b600060608201905061084760008301866107f9565b6108546020830185610808565b6108616040830184610823565b949350505050565b600080fd5b600080fd5b6000601f19601f8301169050919050565b7f4e487b7100000000000000000000000000000000000000000000000000000000600052604160045260246000fd5b6108bc82610873565b810181811067ffffffffffffffff821117156108db576108da610884565b5b80604052505050565b60006108ee610711565b90506108fa82826108b3565b919050565b600067ffffffffffffffff82111561091a57610919610884565b5b61092382610873565b9050602081019050919050565b82818337600083830152505050565b600061095261094d846108ff565b6108e4565b90508281526020810184848401111561096e5761096d61086e565b5b610979848285610930565b509392505050565b600082601f83011261099657610995610869565b5b81356109a684826020860161093f565b91505092915050565b6000602082840312156109c5576109c461071b565b5b600082013567ffffffffffffffff8111156109e3576109e2610720565b5b6109ef84828501610981565b91505092915050565b600060208284031215610a0e57610a0d61071b565b5b6000610a1c848285016107a4565b91505092915050565b6000602082019050610a3a6000830184610808565b92915050565b600081519050919050565b600082825260208201905092915050565b6000819050602082019050919050565b610a7581610745565b82525050565b610a8481610783565b82525050565b610a9381610817565b82525050565b606082016000820151610aaf6000850182610a6c565b506020820151610ac26020850182610a7b565b506040820151610ad56040850182610a8a565b50505050565b6000610ae78383610a99565b60608301905092915050565b6000602082019050919050565b6000610b0b82610a40565b610b158185610a4b565b9350610b2083610a5c565b8060005b83811015610b51578151610b388882610adb565b9750610b4383610af3565b925050600181019050610b24565b5085935050505092915050565b60006020820190508181036000830152610b788184610b00565b905092915050565b600081519050919050565b600082825260208201905092915050565b60005b83811015610bba578082015181840152602081019050610b9f565b60008484015250505050565b6000610bd182610b80565b610bdb8185610b8b565b9350610beb818560208601610b9c565b610bf481610873565b840191505092915050565b60006060820190508181036000830152610c198186610bc6565b9050610c2860208301856107f9565b610c356040830184610823565b949350505050565b7f4e487b7100000000000000000000000000000000000000000000000000000000600052601160045260246000fd5b6000610c7782610783565b91507fffffffffffffffffffffffffffffffffffffffffffffffffffffffffffffffff8203610ca957610ca8610c3d565b5b600182019050919050565b7f4e487b7100000000000000000000000000000000000000000000000000000000600052602260045260246000fd5b60006002820490506001821680610cfb57607f821691505b602082108103610d0e57610d0d610cb4565b5b50919050565b60008190508160005260206000209050919050565b60006020601f8301049050919050565b600082821b905092915050565b600060088302610d767fffffffffffffffffffffffffffffffffffffffffffffffffffffffffffffffff82610d39565b610d808683610d39565b95508019841693508086168417925050509392505050565b6000819050919050565b6000610dbd610db8610db384610783565b610d98565b610783565b9050919050565b6000819050919050565b610dd783610da2565b610deb610de382610dc4565b848454610d46565b825550505050565b600090565b610e00610df3565b610e0b818484610dce565b505050565b5b81811015610e2f57610e24600082610df8565b600181019050610e11565b5050565b601f821115610e7457610e4581610d14565b610e4e84610d29565b81016020851015610e5d578190505b610e71610e6985610d29565b830182610e10565b50505b505050565b600082821c905092915050565b6000610e9760001984600802610e79565b1980831691505092915050565b6000610eb08383610e86565b9150826002028217905092915050565b610ec982610b80565b67ffffffffffffffff811115610ee257610ee1610884565b5b610eec8254610ce3565b610ef7828285610e33565b600060209050601f831160018114610f2a5760008415610f18578287015190505b610f228582610ea4565b865550610f8a565b601f198416610f3886610d14565b60005b82811015610f6057848901518255600182019150602085019450602081019050610f3b565b86831015610f7d5784890151610f79601f891682610e86565b8355505b6001600288020188555050505b505050505050565b7f436f75727365206973206e6f7420616374697665000000000000000000000000600082015250565b6000610fc8601483610b8b565b9150610fd382610f92565b602082019050919050565b60006020820190508181036000830152610ff781610fbb565b9050919050565b7f4f6e6c792074686520696e7374727563746f722063616e20646561637469766160008201527f74652074686520636f7572736500000000000000000000000000000000000000602082015250565b600061105a602d83610b8b565b915061106582610ffe565b604082019050919050565b600060208201905081810360008301526110898161104d565b905091905056fea264697066735822122002e1bb898e996a30e2f5f96ea0b5c1d07c7fb2990c34dc30903bc019ed72966764736f6c63430008180033",
  "linkReferences": {},
  "deployedLinkReferences": {}
}